S00E000054432D5254432E7372656369
S21440000008254020BD1A40006D1B40006D1B400077
S2144000106D1B40006D1B40006D1B40000000000043
S2144000200000000000000000000000006D1B4000C3
S2144000306D1B4000000000006D1B40006D1B400023
S2144000406D1B40006D1B4000F9204000B52040006D
S2144000506D1B40006D1B40006D1B40006D1B40003B
S2144000606D1B4000000000009D0A4000B50A40009D
S214400070CD0A40006D1B40006D1B40006D1B4000CC
S214400080E50A4000FD0A40006D1B40006D1B400025
S2144000906D1B40006D1B40006D1B40006D1B4000FB
S2144000A0251F40006D1B40006D1B40006D1B40002F
S2144000B06D1B40006D1B40006D1B40006D1B4000DB
S2144000C06D1B40006D1B40006D1B40006D1B4000CB
S2144000D0000000006D1B4000000000006D1B40004B
S2144000E06D1B40006D1B40006D1B40006D1B4000AB
S2144000F06D1B40006D1B40006D1B40006D1B40009B
S2144001006D1B40006D1B40006D1B40006D1B40008A
S2144001106D1B4000000000000000000000000000D2
S2144001206D1B40006D1B40006D1B40006D1B40006A
S2144001306D1B4000000000006D1B40006D1B400022
S21440014010B5054C237833B9044B13B10448AFF3CC
S21440015000800123237010BD4404402000000000AE
S214400160002C40000C4B43B10C480D4910B5AFF382
S21440017000800C48036823B910BD0A48036833B9A9
S2144001807047094B002BF7D0BDE810401847064B88
S214400190002BF5D0184700BF00000000002C4000A0
S2144001A048044020002C40000000000080B582B08B
S2144001B000AF78607B68072B31D801A252F823F055
S2144001C01D024000E1014000E9014000F10140000D
S2144001D0F9014000010240000902400013024000BD
S2144001E00020114B98471AE001200F4B984716E025
S2144001F000200E4B984712E010200C4B98470EE01C
S21440020020200A4B98470AE03E210020084B98479A
S21440021005E03E210120064B984700E000BF00BFA6
S2144002200837BD4680BD00BF150C4000810C40001D
S214400230F10C400080B582B000AF78607B68072B39
S21440024026D801A252F823F0690240006D02400011
S2144002506D0240007F0240007F0240007F02400067
S2144002607F0240007F024000012312E00B4B98477C
S2144002700346002B14BF01230023DBB209E0084BE2
S21440028098470346002B14BF01230023DBB200E04F
S214400290002318460837BD4680BD00BF4D0C4000C1
S2144002A0690D400080B483B000AF78607B68072B50
S2144002B025D801A252F823F0D9024000DF024000C0
S2144002C0E5024000EB024000EF024000F30240002F
S2144002D0F7024000FB0240004FF4FA4310E04FF4B0
S2144002E000430DE04FF400430AE0084B08E0084B9B
S2144002F006E0084B04E0074B02E0064B00E0002314
S21440030018460C37BD465DF8047B704700093D0033
S21440031000127A00001BB70080B582B000AF0346DB
S214400320FB7100BFFB791846054B9847034683F0A0
S2144003300103DBB2002BF5D100BF0837BD4680BDB8
S2144003403502400080B586B000AFF8607A603B600A
S2144003500B46FB727B68002B07D13B68002B04D111
S214400360FB684FF470021A6019E0FB7A18460E4B91
S214400370984702467B68B2FBF3F37B617B693A6839
S21440038002FB03F37B613B68013B1A04074B1340B7
S2144003907A68D2B2134343F47C52FB681A6000BFBB
S2144003A01837BD4680BD00BFA50240000000FF07CD
S2144003B080B582B000AF786039603B68002B08D1CA
S2144003C0094B9847094A7B681B6843F00053936281
S2144003D005E0064A7B681B6843F48033D36100BF60
S2144003E00837BD4680BD00BF850D400000060E4064
S2144003F080B582B000AF78607B68002B03D1054B98
S2144004009847034602E0044B984703461846083789
S214400410BD4680BDA10D4000BD0D400080B582B0F8
S21440042000AF0346FB71FB79033B042B08D8FB79EE
S2144004301846064B9847FB791846054B984700E008
S21440044000BF00BF0837BD4680BD00BFAD014000BD
S2144004501903400080B582B000AF786000BF78686E
S214400460044B98470346002BF9D00023184608371C
S214400470BD4680BDF103400080B500AF0620054B69
S2144004809847024613469B0013449A001344184666
S21440049080BD00BFA502400080B500AF024B984724
S2144004A00346184680BD00BF7904400090B583B02F
S2144004B000AF1348134B98470620134B9847381DF8
S2144004C0192301220621114CA0473B1D0021184646
S2144004D00F4B984700200F4B984702200E4B9847EB
S2144004E000200E4B98470E4B98470E4B98470346B6
S2144004F01846044B984700BF0C37BD4690BD00BF1A
S21440050000A3E111DD1C40001D04400045034000EF
S214400510B103400055044000150B4000910B4000CD
S214400520751B40009904400080B485B000AFF86069
S214400530B9607A607B68002B03D0FB68BA685A665D
S21440054002E0FB68BA681A6600BF1437BD465DF81D
S214400550047B704780B483B000AF786039607B68B6
S2144005603A681A6300BF0C37BD465DF8047B704797
S21440057080B483B000AF786039607B683A685A636D
S21440058000BF0C37BD465DF8047B704780B487B02B
S21440059000AFF860B9607A60FB687A685A64BB68F6
S2144005A0B3F1C05F4AD0B3F1C05F08D8B3F1006F73
S2144005B016D0B3F1805F2CD0002B69D064E0B3F145
S2144005C0205F65D0B3F1205F03D8B3F1005F4AD017
S2144005D05AE0B3F1405F5BD0B3F1605F58D053E070
S2144005E0FB681B6F7B61FB681A6F7B68D9437B692E
S2144005F00B401A40FB681A67FB685B6F7B61FB68C1
S2144006005A6F7B68D9437B690B401A40FB685A6730
S2144006103AE0FB681B6F7B617A687B691A43FB682C
S2144006201A67FB685B6F7B61FB685A6F7B68D943D0
S2144006307B690B401A40FB685A6725E0FB681B6FD6
S2144006407B61FB681A6F7B68D9437B690B401A4015
S214400650FB681A67FB685B6F7B617A687B691A4345
S214400660FB685A6710E0FB681B6F7B617A687B69A2
S2144006701A43FB681A67FB685B6F7B617A687B6925
S2144006801A43FB685A6700BFFB687A685A6000E006
S21440069000BF1C37BD465DF8047B704780B584B00C
S2144006A000AFF860B9607A60B968F868194B984747
S2144006B07B6803F001031A46B968F868164B9847FA
S2144006C07B6803F00A03002B03D0FB68BA681A6203
S2144006D002E0FB68BA685A627B6803F00203002BAC
S2144006E004D0FB68BA68C3F8802008E07B6803F053
S2144006F00803002B03D0FB68BA68C3F88420FB6865
S214400700BA685A61FB68BA681A6000BF1037BD46BF
S21440071080BD00BFFD0840002905400080B584B07C
S21440072000AFF860B9607A603B60B968F868124B11
S2144007309847BA69B968F868104B98473B68002BE9
S21440074003D0FB68BA681A6502E0FB68BA685A6567
S2144007507B68002B03D0FB68BA681A6302E0FB682C
S214400760BA685A63FB68BA681A61FB68BA681A6066
S21440077000BF1037BD4680BDFD084000290540003B
S21440078090B587B002AFF860B9607A603B60BB68EE
S214400790B3F1005F16D0B3F1005F09D8B3F1805FC4
S2144007A010D0B3F1C05F0DD0B3F1006F0AD03DE07A
S2144007B0B3F1405F1AD0B3F1605F17D0B3F1205F5A
S2144007C00ED033E07A68B968F8681C4B98473B68A7
S2144007D003F001031A467968F868194B984727E0F2
S2144007E03A687968F868174B984721E0BB68B3F1D8
S2144007F0605F0CBF01230023DBB21A463B6803F060
S2144008000403002B14BF01230023DBB219463B68C8
S21440081003F00103002B14BF01230023DBB2009337
S2144008200B467968F868084CA04701E0002300E0D2
S214400830012318461437BD4690BD00BF8D054000C5
S214400840290540009D0640001D07400080B483B047
S21440085000AF786039607B689A6B3B681340002B2A
S21440086001D1002300E0012318460C37BD465DF851
S214400870047B704780B485B000AFF860B9607A609A
S2144008807B6803F01003002B20D0FB68BA68C3F8DF
S214400890B0207B6803F02003002B04D0FB68BA68C6
S2144008A0C3F8D42003E0FB68BA68C3F8D0207B685E
S2144008B003F04003002B04D0FB68BA68C3F8C0209E
S2144008C008E0FB68BA68C3F8C42003E0FB68BA686F
S2144008D0C3F8B42000BF1437BD465DF8047B7047AC
S2144008E080B483B000AF786039607B683A681A6439
S2144008F000BF0C37BD465DF8047B704780B483B0BC
S21440090000AF786039607B683A685A6400BF0C373D
S214400910BD465DF8047B704780B483B000AF786016
S2144009207B68DB6C18460C37BD465DF8047B704729
S21440093080B483B000AF78607B689B6C18460C37F9
S214400940BD465DF8047B704780B584B000AF7860E4
S21440095039607868264B9847F8607868254B984702
S2144009600246FB681340FB60FB68002B3CD000232C
S214400970BB6034E0204ABB681B0113441A683B68DE
S2144009809A4226D11C4ABB681B01134404331A689A
S214400990FB681340002B1CD0174ABB681B0113444E
S2144009A00C331B681449BA6812010A44106812498D
S2144009B0BA6812010A4404321268114698470E4A31
S2144009C0BB681B01134404331B68DB43FA681340BF
S2144009D0FB60BB680133BB60BB68062B03D8FB6873
S2144009E0002BC7D100E000BF00BF1037BD4680BD1A
S2144009F019094000310940006004402080B586B0A7
S214400A0000AFF860B9607A603B60214B1B68062BEC
S214400A1001D9012338E00023FB7511E0FB7D1B0163
S214400A201C4A13443B613B691A68BB689A4204D12E
S214400A303B695A687B689A4208D0FB7D0133FB7558
S214400A40FA7D134B1B689A42E8D900E000BF3B6929
S214400A50BA681A603B697A685A603B693A689A6035
S214400A603B693A6ADA60FA7D094B1B6801339A4261
S214400A7004D1074B1B680133054A13603A6879680E
S214400A80F868054B9847002318461837BD4680BD82
S214400A90D0044020600440207508400080B500AF78
S214400AA00A210248024B984700BF80BD000E0E4008
S214400AB04909400080B500AF0B210248024B9847D9
S214400AC000BF80BD00100E404909400080B500AF11
S214400AD00C210248024B984700BF80BD00120E40D2
S214400AE04909400080B500AF10210248024B9847A4
S214400AF000BF80BD00140E404909400080B500AFDD
S214400B0011210248024B984700BF80BD00160E4098
S214400B104909400080B483B000AF78607B68013BF1
S214400B20032B1AD801A252F823F000BF3D0B400019
S214400B30430B40004B0B4000530B400000237B60B0
S214400B400EE04FF480737B600AE04FF440737B60A6
S214400B5006E04FF400737B6002E000237B6000BF3A
S214400B600A490A4B1B6B23F440727B6813430B63A2
S214400B7000BF064B9B6E03F00803002BF9D000BF66
S214400B800C37BD465DF8047B704700BF00060E403C
S214400B9080B485B000AF78601D491D4B1B6B23F0B9
S214400BA070027B6813430B634FF48053FB6007E08F
S214400BB0FB68002B01D1012323E0FB68013BFB606F
S214400BC0134B9B6E03F00803002BF1D0104A104BDA
S214400BD01B6B23F0030343F0020313634FF480536D
S214400BE0FB6007E0FB68002B01D1012309E0FB68AE
S214400BF0013BFB60064B9B6E03F00803002BF1D0D5
S214400C00002318461437BD465DF8047B704700BF86
S214400C1000060E4080B483B000AF78607B68012B3E
S214400C2005D10749064B9A68064B13438B60044B25
S214400C30054A1A6000BF0C37BD465DF8047B704716
S214400C4010180E40000010A5080000A580B400AFA4
S214400C50094B5B6903F08003002B07D0074B9B6E64
S214400C6003F08003002B01D0012300E00023184648
S214400C70BD465DF8047B704710180E4000060E40D7
S214400C8080B483B000AF78601549154B1A6A154B8F
S214400C9013430B6200BF124B9B6E03F40033002BD2
S214400CA0F9D00F490E4B1A6A0F4B13407A6813431C
S214400CB043F45C130B6200BF094B9B6E03F4003396
S214400CC0002BF9D00649064B1A6A084B134043F4EA
S214400CD05C130B6200BF0C37BD465DF8047B704763
S214400CE000060E40080037008FFFC8FFFFFFC8FE13
S214400CF080B483B000AF786039607B68002B08D042
S214400D001349134B1B6A134A1A40134B13430B6287
S214400D1018E00F490E4B1A6A104B13403A681202FD
S214400D2092B21A430E4B13430B6200BF084B9B6EA6
S214400D3003F00103002BF9D00549054B1A6A094B0D
S214400D4013430B6200BF0C37BD465DF8047B70470B
S214400D5000060E40FCFFC8FE02003701FCFFC8FF3D
S214400D60010037000000370180B400AF044B9B6E93
S214400D7003F480331846BD465DF8047B704700BFD9
S214400D8000060E4080B400AF044B4FF000529A620B
S214400D9000BFBD465DF8047B704700BF00060E40AE
S214400DA080B400AF044B9B6E03F002031846BD466A
S214400DB05DF8047B704700BF00060E4080B400AF6D
S214400DC0044B9B6E03F040031846BD465DF8047B1B
S214400DD0704700BF00060E4080B483B000AF786016
S214400DE07B683F2B01D901232FE07B681F2B13D84C
S214400DF0194B9A6901217B6801FA03F31A400121D5
S214400E007B6801FA03F39A421ED0134A01217B689D
S214400E1001FA03F3136117E07B68203B7B600E4BBF
S214400E20D3F8082101217B6801FA03F31A40012117
S214400E307B6801FA03F39A4206D0074A01217B6891
S214400E4001FA03F3C2F80031002318460C37BD46BA
S214400E505DF8047B704700BF00060E4080B483B048
S214400E6000AF7860044A7B68136000BF0C37BD460D
S214400E705DF8047B704700BF0C00402080B483B010
S214400E8000AF204B1B6F7B607B6823F4C0037B6006
S214400E907B6843F480037B601A4A7B681367194972
S214400EA0184B1A6A184B13430B6200BF154B9B6EC8
S214400EB003F00803002BF9D000237B6003E000BF5B
S214400EC07B6801337B607B68B3F5FA7FF7D300BF5E
S214400ED00C4B1B6A03F00803002BF9D0094B1B6F21
S214400EE07B607B6823F4C0037B607B6843F48003AD
S214400EF07B60044A7B68136700BF0C37BD465DF8CD
S214400F00047B704700060E400400370090B599B049
S214400F1000AF78607B68013B042B00F2A38101A2FE
S214400F2052F823F0390F4000390F4000550F40006B
S214400F30550F400043124000714A714B1B6923F025
S214400F40040313616F4B01221A70BFF35F8F62B6C2
S214400F5030BF87E17B68032B03D100206A4B98475C
S214400F6003E04FF40010684B984772B6BFF35F8FAC
S214400F70644B00221A70654B01221A707B68042B62
S214400F800CBF01230023DAB207F11C033B6407F1D0
S214400F901803FB6307F11403BB6307F110037B637D
S214400FA007F10C033B63134687F82F30584B1B6AF8
S214400FB0BB62574B1B6B7B62564B1B683B623B6C62
S214400FC0002B02D03B6CBA6A1A60FB6B002B03D036
S214400FD04F4B9A6AFB6B1A60BB6B002B02D0BB6B05
S214400FE000221A607B6B002B02D07B6B7A6A1A60F9
S214400FF03B6B002B02D03B6B3A6A1A604449BA6A94
S214401000454B13430B627B6A03F00303012B0ED957
S2144010107B6A23F0030343F001037B623C4A7B6A0E
S21440102013633B4B9B6E03F00803002BF9D07B6A9F
S21440103003F07003002B0CD07B6A23F070037B62B6
S214401040334A7B6A1363324B9B6E03F00803002BD4
S214401050F9D0324B98472E4B9B6E03F40033002B4F
S214401060F9D02B492A4B1A6A2D4B134043F45C1394
S2144010700B62274B9B6E03F48033002BF9D0254A36
S2144010803B6A23F47063136097F82F30002B07D029
S2144010901F491F4B1A6A234B134043F45C130B62E1
S2144010A0184B01221A70BFF35F8F62B61E4B9847EB
S2144010B072B6BFF35F8F134B00221A70FC69B86993
S2144010C079693A69FB68FC65B86579653A65FB6499
S2144010D00023BB64FB6D03F00203002B2CD00C49AD
S2144010E00B4B1B6A114A1A40114B13430B620849BB
S2144010F0074B1A6A0F4B134043F45C130B624EE0E7
S21440110000ED00E00A0040205D0E4000D404402080
S21440111000060E40000C0E4008003700850D4000CB
S214401120FFFFC8FEFEFFC8FF7D0E4000FCFFC8FE66
S2144011300200370187FFC8FFFB6D03F00103002B59
S2144011402DD04A4B1B6A03F00103002B0DD14749B3
S214401150464B1B6A464A1A40464B13430B62434B68
S2144011609B6E03F00103002BF9D0404B1B6A03F043
S2144011708073002B0BD13D493C4B1A6A3E4B1343C0
S2144011800B623A4B9B6E03F48033002BF9D0374901
S214401190364B1A6A394B134043F45C130B62BA6DF4
S2144011A0374B1340002B08D0304ABB6D43F00053FA
S2144011B09362BB6C43F00203BB643B6D03F00303D6
S2144011C0022B05D1294B9B6E03F00203002BF9D06E
S2144011D0264B1B6B7B6425497B6C23F070023B6D72
S2144011E003F0700313430B63204B9B6E03F008031E
S2144011F0002BF9D0234AFB6C13601C4A3B6D1363EB
S2144012001A4B9B6E03F00803002BF9D0174B9A6ECF
S214401210BB6C1340002BF9D01B4B00221A701B4BA3
S2144012201B68002B05D0194B1B689847174B0022AC
S2144012301A60174B01221A70BFF35F8F62B600BF69
S21440124010E0144A134B1B6943F004031361124B1E
S214401250124A1A600E4B01221A70BFF35F8F62B6B5
S21440126030BF00BF00BF6437BD4690BD00060E408D
S214401270FCFFC8FF010037000000370187FFC8FFAA
S2144012800000FF07000C0E40D4044020D804402045
S2144012900A00402000ED00E010180E40040000A5B3
S2144012A080B483B000AF786039603B68002B06D0CE
S2144012B07B685B6843F001027B685A6005E07B68A8
S2144012C05B6823F001027B685A6000BF0C37BD465E
S2144012D05DF8047B704780B483B000AF78603960B7
S2144012E07B683A681A6200BF0C37BD465DF8047BDF
S2144012F07047000080B487B000AFF860B9607A608D
S2144013003B6000237B61FB685B6803F00103012BB5
S21440131009D1BB680C2B06D9BB680C3BBB607B690C
S21440132043F480037B61BB68334AA2FB0323DB089C
S2144013301805B968304BA3FB0123DA0813469B0017
S21440134013445B00CA1A130403437A6913437B6150
S2144013507B68294AA2FB0323DB0818037968264BDF
S214401360A3FB0123DA0813469B0013445B00CA1A0A
S214401370130203437A6913437B613B681E4AA2FB10
S2144013800323DB08180139681B4BA3FB0123DA084B
S21440139013469B0013445B00CA1A40EA02037A696C
S2144013A013437B61FB681B6843F00102FB681A60CD
S2144013B000BFFB689B6903F00103012BF9D1FB6872
S2144013C00122DA61FB687A699A60FB681B6823F041
S2144013D00102FB681A60FB68DB6943F00402FB68A5
S2144013E0DA61FB68DB6A03F0010318461C37BD462A
S2144013F05DF8047B704700BFCDCCCCCC80B487B0C2
S21440140000AFF860B9607A603B6000237B61BB68E0
S214401410002B24D0FB685B6803F00103012B09D145
S2144014207B680C2B06D97B680C3B7B607B6943F45E
S21440143080037B617B682E4AA2FB0323DB081805EA
S21440144079682B4BA3FB0123DA0813469B00134411
S2144014505B00CA1A130403437A6913437B613B68F3
S214401460002B14D03B6A224AA2FB0323DB08180356
S214401470396A1F4BA3FB0123DA0813469B0013442B
S2144014805B00CA1A130203437A6913437B617B6A83
S214401490002B14D0BB6A164AA2FB0323DB081801B4
S2144014A0B96A134BA3FB0123DA0813469B00134487
S2144014B05B00CA1A40EA02037A6913437B61FB6801
S2144014C01A690C4B1340FA681361FB687A691A6113
S2144014D0FB681A69084B1343FA681361FB68DB6ABA
S2144014E003F0040318461C37BD465DF8047B70477E
S2144014F0CDCCCCCC7F7F7FFF8080800080B487B00F
S21440150000AFF860B9607A603B6000237B61BB68DF
S214401510464AA2FB03239B091801BB68444AA2FB28
S21440152003235909434BA3FB0123DA0813469B00C8
S21440153013445B00CA1A40EA02037A6913437B618C
S214401540BB683C4AA2FB0323D9083A4BA3FB0123C2
S214401550DA0813469B0013445B00CA1A1003B968A6
S214401560344BA3FB0123DA0813469B0013445B006D
S214401570CA1A130203437A6913437B617B682D4A78
S214401580A2FB0323DB08180579682A4BA3FB01233B
S214401590DA0813469B0013445B00CA1A130403433D
S2144015A07A6913437B613B6A5B057A6913437B61C7
S2144015B03B68204AA2FB0323DB08180739681D4B0B
S2144015C0A3FB0123DA0813469B0013445B00CA1AA8
S2144015D0130603437A6913437B61FB681B6843F039
S2144015E00202FB681A6000BFFB689B6903F00103B8
S2144015F0012BF9D1FB680122DA61FB687A69DA606F
S214401600FB681B6823F00202FB681A60FB68DB6914
S21440161043F00402FB68DA61FB68DB6A03F002030E
S21440162018461C37BD465DF8047B7047D34D6210A4
S2144016301F85EB51CDCCCCCC80B487B000AFF860E2
S214401640B9607A603B6000237B61BB68002B14D096
S2144016507B68224AA2FB0323DB08180579681F4BE8
S214401660A3FB0123DA0813469B0013445B00CA1A07
S214401670130403437A6913437B613B68002B14D001
S2144016803B6A164AA2FB0323DB081807396A134B4A
S214401690A3FB0123DA0813469B0013445B00CA1AD7
S2144016A0130603437A6913437B61FB685A690C4B04
S2144016B01340FA685361FB687A695A61FB685A6955
S2144016C0084B1343FA685361FB68DB6A03F0080370
S2144016D018461C37BD465DF8047B7047CDCCCCCC55
S2144016E0FFFF7F7F0000808080B483B000AF7860CB
S2144016F07B689B6918460C37BD465DF8047B70478F
S21440170080B483B000AF786039607B683A68DA614D
S21440171000BF0C37BD465DF8047B704780B483B08D
S21440172000AF78600B467B807A88074B1B68134374
S21440173043F480227B681A60002318460C37BD4667
S2144017405DF8047B704700BFDC04402080B483B063
S21440175000AF78600B46FB70FB78002B0DD0104B2B
S2144017601B6843F080730E4A13607B681A680C4B04
S2144017701B681A437B681A600CE0094B1B6823F011
S2144017808073074A13607B681A68054B1B681A43C8
S2144017907B681A6000BF0C37BD465DF8047B704717
S2144017A0DC04402080B485B000AF786039607B6848
S2144017B01B68FB60FA683B681343FB60064B1B687C
S2144017C0FA681343FB607B68FA681A6000BF1437F8
S2144017D0BD465DF8047B7047DC04402080B485B08D
S2144017E000AF786039600023FB607B681B68FB6055
S2144017F03B68DB43FA681340FB60074B1B68FA689C
S2144018001343FB607B68FA681A6000BF1437BD4616
S2144018105DF8047B704700BFDC04402080B485B090
S21440182000AF78607B689B68FB6002E07B689B68E3
S214401830FB607B689A68FB689A42F7D1FB6818465B
S2144018401437BD465DF8047B704780B483B000AF64
S21440185078607B68DB6818460C37BD465DF8047BCD
S2144018607047000080B584B000AF786039607B6810
S2144018701B6803F48033FB604FF480310D480E4BF9
S21440188098473B68002B04D17B684FF0FF325A6084
S21440189003E03B685A1E7B685A60FB68002B04D006
S2144018A04FF480310348054B9847002318461037BD
S2144018B0BD4680BD30180E40DD174000A5174000DD
S2144018C080B487B000AFF860B9607A60FA68BB68E9
S2144018D09B0113447B617B6902221A607B694FF04F
S2144018E0FF329A627B691B6A7B697A685A6000BFDE
S2144018F01C37BD465DF8047B704780B483B000AFAC
S214401900786039607A683B689B01134405221A6008
S21440191000BF0C37BD465DF8047B704780B485B089
S21440192000AFF860B9607A60FA68BB689B01134400
S2144019301C337A681A6000BF1437BD465DF8047BD6
S214401940704780B487B000AFF860B9607A60FA68D4
S214401950BB689B0113447B617B697A685A6200BF0F
S2144019601C37BD465DF8047B704780B485B000AF39
S214401970786039607A683B689B011344FB60FB687B
S2144019801B6A18461437BD465DF8047B704780B422
S2144019908DB000AFF860B9607A603B6002233B616F
S2144019A008237B612023BB618023FB61BB6BDB0B81
S2144019B03B620023FB621AE0FB6A9B0007F13002A1
S2144019C0134453F8203CBA68B2FBF3F3BB62BB6ADD
S2144019D01B0C7B62FA68BB6A9A4201D9002323E05B
S2144019E0FA687B6A9A4206D2FB6A0133FB62FB6A5C
S2144019F0042BE1D900E000BFFB6A042B01D9002389
S214401A0012E07B68002B08D0FB6A9B0007F130028F
S214401A10134453F8202C7B681A603B68002B02D096
S214401A203B68FA6A1A60012318463437BD465DF8AB
S214401A30047B704780B483B000AFEFF310837B60C5
S214401A407B68002B0CBF01230023DBB23B6072B6E1
S214401A50BFF35F8F044B00221A703B6818460C3762
S214401A60BD465DF8047B70470A00402080B483B0D2
S214401A7000AF78607B68002B14BF01230023DBB2E5
S214401A8018460C37BD465DF8047B704780B582B07B
S214401A9000AF78607868074B98470346002B05D020
S214401AA0054B01221A70BFF35F8F62B600BF08373E
S214401AB0BD4680BD6D1A40000A00402080B584B007
S214401AC000AF1E4BFB601E4BBB60FA68BB689A4279
S214401AD00CD007E0BB681A1DBA60FA68111DF960A1
S214401AE012681A60BB68174A9342F3D3164BBB6022
S214401AF004E0BB681A1DBA6000221A60BB68134A2D
S214401B009342F6D3124BFB60124AFB6823F07F03E6
S214401B109360114B98477860104A104B1B6843F40B
S214401B2070031360BFF34F8FBFF36F8F78680C4B13
S214401B3098470C4B98470C4B9847FEE7002C4000C4
S214401B400000402044044020440440200805402033
S214401B500000400000ED00E0351A400088ED00E04F
S214401B608D1A4000452A4000FD25400080B400AF55
S214401B70FEE7000080B400AF524B1B6B03F003033C
S214401B80012B14D0012B02D3022B38D07AE04E4BD7
S214401B905B6903F08003002B04D04C4B4FF40042AB
S214401BA01A606FE0494B4FF4FA421A606AE0454BC0
S214401BB01B6A03F08073002B03D0444B444A1A60E0
S214401BC060E0424B434A1A603E4B1B6A03F0700388
S214401BD0102B04D0202B08D0002B0ED00EE03B4B11
S214401BE01B685B00394A136008E0384B1A68134696
S214401BF05B001344354A136000E000BF42E0314BBF
S214401C001B6A03F08073002B03D0304B304A1A60B7
S214401C101CE02E4B2F4A1A602A4B1B6A03F07003B7
S214401C20102B04D0202B08D0002B0ED00EE0274BD4
S214401C301B685B00254A136008E0244B1A6813466D
S214401C405B001344214A136000E000BF1D4B1B6B32
S214401C5003F00303022B14D11A4B9B6A1B0CC3F3ED
S214401C600A030133194A126802FB03F3174A13604A
S214401C70144B9B6ADBB2154A1268B2FBF3F3134A65
S214401C80136000BF0F4B1B6B03F07003702B08D123
S214401C900E4B1B68104AA2FB03235B080B4A1360DB
S214401CA00AE0084B1B6B1B0903F00703074A126840
S214401CB022FA03F3054A136000BFBD465DF8047B75
S214401CC0704700BF00060E4010180E40100040201F
S214401CD0001BB70000093D00ABAAAAAA80B483B097
S214401CE000AF78607B68194A934204D8184B4FF08F
S214401CF080621A6023E07B68164A934203D8144BEE
S214401D00154A1A601BE07B68144A934203D8104B6E
S214401D10134A1A6013E07B68124A934203D80C4B6E
S214401D20114A1A600BE07B68104A934204D8084B6D
S214401D304FF004221A6002E0054B0D4A1A6000BFBD
S214401D400C37BD465DF8047B704700BFFF2C310161
S214401D50000C0E40FF59620200010004FF86930308
S214401D6000020004FFB3C40400030004FFE0F505CE
S214401D700005000480B483B000AF0346FB710949F8
S214401D8097F907305B09FA7902F01F02012000FA42
S214401D9002F241F8232000BF0C37BD465DF8047BB5
S214401DA0704700BF00E100E080B483B000AF034658
S214401DB0FB71094997F907305B09FA7902F01F026F
S214401DC0012000FA02F2203341F8232000BF0C37EE
S214401DD0BD465DF8047B704700E100E080B483B008
S214401DE000AF0346FB71094997F907305B09FA795A
S214401DF002F01F02012000FA02F2603341F823206D
S214401E0000BF0C37BD465DF8047B704700E100E03C
S214401E1080B483B000AF03463960FB7197F9073052
S214401E20002B0BDA0D49FB7903F00F03043B3A68AD
S214401E30D2B25201D2B20B441A7609E0084997F959
S214401E4007303A68D2B25201D2B20B4483F800232C
S214401E5000BF0C37BD465DF8047B704700ED00E0E0
S214401E6000E100E080B483B000AF78607B68072B69
S214401E7025D801A252F823F0991E40009F1E40002C
S214401E80A51E4000AB1E4000AF1E4000B31E4000E3
S214401E90B71E4000BB1E40004FF4FA4310E04FF41C
S214401EA000430DE04FF400430AE0084B08E0084BBF
S214401EB006E0084B04E0074B02E0064B00E0002338
S214401EC018460C37BD465DF8047B704700093D0058
S214401ED000127A00001BB70080B500AF0620054B05
S214401EE09847024613469B0013449A0013441846EC
S214401EF080BD00BF651E400080B500AF024B9847CE
S214401F000346184680BD00BFD91E400080B483B04B
S214401F1000AF7860396000BF0C37BD465DF8047B83
S214401F207047000080B582B000AF01210648074BDD
S214401F30984703467B607B68054B01221A7000BFBA
S214401F400837BD4680BD00BF00C000406B1940004A
S214401F50E1044020F0B585B000AF786039600023DA
S214401F60FB608EE04FF400214A484B4B98473B6855
S214401F70002B26D03B681D464FEAE576474B9847F0
S214401F8003464FF0000403FB06F105FB04F20A4447
S214401F90A5FB03342244144641F22B714FF0000255
S214401FA05D1844EB0206284631463D4C41F22C7201
S214401FB04FF00003A04703460C461846394B984757
S214401FC016E0364B984703464FF0000436494FF02C
S214401FD000025D1844EB020628463146304C334A30
S214401FE04FF00003A04703460C4618462D4B984733
S214401FF04FF4002127482E4B98473B68002B26D0AD
S2144020003B681D464FEAE576244B984703464FF01B
S214402010000403FB06F105FB04F20A44A5FB033467
S2144020202244144641F22B714FF000025D1844EBF7
S2144020300206284631461A4C41F22C724FF00003F5
S214402040A04703460C461846164B984716E0134BD7
S214402050984703464FF0000413494FF000025D18BE
S21440206044EB0206284631460D4C104A4FF000031A
S214402070A04703460C4618460A4B9847FB68013370
S214402080FB60FA687B689A42FFF66CAF00BF143775
S214402090BD46F0BD00120E4071054000F91E4000DE
S2144020A03527400001004020DF835A00E0835A0075
S2144020B05505400080B582B000AF0A480A4B9847A5
S2144020C078607B6803F00103002B07D04FF08061F7
S2144020D00648074B9847074B01221A7000BF08373F
S2144020E0BD4680BD30180E404B18400000140E40D0
S2144020F0DD224000E204402080B582B000AF19489F
S214402100194B984778607B6803F00403002B03D094
S21440211004211448154B98477B6803F00203002BB4
S21440212008D002210F48114B98474FF400611048E1
S214402130104B9847104B01221A70012109480B4B4F
S214402140984708210748094B984710210548074BF0
S214402150984720210348054B984700BF0837BD469F
S21440216080BD00BF60180E40E916400001174000D1
S21440217000140E40DD224000E0044020F0B585B05B
S21440218000AF786039600023FB608EE04FF48071CA
S2144021904A484B4B98473B68002B26D03B681D4629
S2144021A04FEAE576474B984703464FF0000403FB5B
S2144021B006F105FB04F20A44A5FB03342244144608
S2144021C041F22B714FF000025D1844EB02062846A0
S2144021D031463D4C41F22C724FF00003A047034677
S2144021E00C461846394B984716E0364B98470346F8
S2144021F04FF0000436494FF000025D1844EB0206EB
S21440220028463146304C334A4FF00003A047034639
S2144022100C4618462D4B98474FF4807127482E4B56
S21440222098473B68002B26D03B681D464FEAE5762C
S214402230244B984703464FF0000403FB06F105FB8A
S21440224004F20A44A5FB03342244144641F22B719F
S2144022504FF000025D1844EB0206284631461A4C01
S21440226041F22C724FF00003A04703460C46184636
S214402270164B984716E0134B984703464FF000041A
S21440228013494FF000025D1844EB020628463146DB
S2144022900D4C104A4FF00003A04703460C46184624
S2144022A00A4B9847FB680133FB60FA687B689A42A2
S2144022B0FFF66CAF00BF1437BD46F0BD00120E40AF
S2144022C071054000F91E40003527400001004020BF
S2144022D0DF835A00E0835A005505400080B582B03F
S2144022E000AF7860396039687868094B984703468C
S2144022F0002B04D039687868064B984703E0396865
S2144023007868054B984700BF0837BD4680BD00BF7C
S2144023104D084000710540005505400098B500AF97
S2144023201020064B984700234FF080624FF04051F4
S2144023300348044CA04700BF98BD00BFD90D4000DD
S21440234000140E408107400080B584B000AF0346BD
S2144023503960FB8000211848184B9847FB8819467F
S2144023601548174B98471448164B9847F86000BFD7
S2144023701148144B98470246FB689A42F8D03A6890
S214402380FB68134419460C480F4B984703200F4BE5
S214402390984703200E4B9847002103200D4B984743
S2144023A003200D4B98474FF4803103480B4B98471A
S2144023B000BF1037BD4680BD30180E404D17400058
S2144023C01D1740001D18400065184000A91D40001C
S2144023D0DD1D4000111E4000751D4000A517400041
S2144023E090B583B002AF0A20104B984709224FF4AD
S2144023F000610F480F4B98474FF400610C480E4B56
S21440240098470E4B009350234FF400620A21084829
S2144024100B4CA0470A200B4B984701210A200A4B39
S214402420984700BF0437BD4690BD00BFD90D400059
S214402430000E0E409D064000E10840000D1F400083
S214402440FD094000751D4000111E400090B585B046
S21440245002AF78600C20134B98471020114B9847DA
S2144024600C20104B98477A680023009300234FF4C3
S21440247000210D480D4CA0477A68002300930023A6
S2144024804FF080610A48094CA0477A6800230093C1
S21440249000234FF480710448044CA04700BF0C371B
S2144024A0BD4690BDD90D400000120E401D074000AD
S2144024B000140E4090B58BB002AFF860B9607A60F9
S2144024C03B601D4B9847F861BB6818461B4B9847C6
S2144024D0386807F1140107F11802FB6900930B46B0
S2144024E0F969174CA04779687B6943F480431A46DC
S2144024F0F868144B98477968BB69FA69B2FBF3F2FF
S2144025003B68B2FBF3F31A46F8680F4B9847BB6834
S2144025105BB218460D4B98477B6810221946F86800
S2144025200B4B98477B681946F8680A4B984700BF9C
S2144025302437BD4690BD00BFF91E4000D90D40006F
S2144025408F194000C11840001D194000751D4000FD
S21440255043194000FB18400082B090B585B002AFEA
S2144025607860396007F1180181E80C0002201A4BA8
S214402570984700217868194B9847B969FA69386ACC
S2144025807B6A009303467868154CA047B96AFA6A96
S2144025903B6B7868134CA0473B685BB21846124BBF
S2144025A098473B685BB21846104B98473B685BB20F
S2144025B0002118460E4B98473B685BB218460D4BB9
S2144025C09847796B78680C4B984700BF0C37BD46E8
S2144025D0BDE8904002B07047D90D4000A1124000BF
S2144025E0FD144000F5124000A91D4000DD1D4000CE
S2144025F0111E4000751D4000D7124000B0B590B087
S21440260006AF394B9847394B9847394B4FF4004201
S2144026105A600020374B9847374B9847374B012234
S2144026201A70374B3C1D1D460FCD0FC495E807006A
S21440263084E80700022305936D4607F10C040FCC8F
S2144026400FC523682B603B1D0CCB02212D482E4C1A
S214402650A0470423012218212C482D4CA047BA68D5
S214402660FB6800930123012126482A4CA04779693C
S214402670BB69FA6914320292012201920093012347
S2144026800A4601211F48244CA0470220234B984766
S214402690234B1B78DBB2002B06D00A210120214BAE
S2144026A098471F4B00221A701F4B1B78DBB2002B3B
S2144026B006D0C82105201D4B98471B4B00221A7098
S2144026C00E4B1B78DBB2002BDFD04FF40053FB845D
S2144026D008233B62FB8C396A1846154B9847074BD4
S2144026E000221A70D1E700BFAD0440001D23400011
S2144026F050180E404D244000E1234000E2044020A4
S214402700B42B400060180E405925400000C00040E1
S214402710B524400039164000FD1340000D0F400020
S214402720E1044020551F4000E00440207D21400049
S2144027304923400053B94AB9002908BF00281CBFA6
S2144027404FF0FF314FF0FF3000F07AB9ADF1080C92
S2144027506DE904CE00F006F8DDF804E0DDE902237A
S21440276004B070472DE9F0478C460D460446089E57
S214402770002B51D18A4217466DD9B2FA82FEBEF17D
S214402780000F0BD0CEF1200C01FA0EF520FA0CFC0F
S21440279002FA0EF74CEA050C00FA0EF44FEA174A16
S2144027A0250CBCFBFAF81FFA87F90AFB18CC45EA59
S2144027B00C4508FB09F3AB420AD9ED1908F1FF3284
S2144027C080F02381AB4240F22081A8F102083D44CC
S2144027D0ED1AA4B2B5FBFAF00AFB105544EA0544DC
S2144027E000FB09F9A14509D9E41900F1FF3380F04F
S2144027F00A81A14540F2078102383C44A4EB090413
S21440280040EA08400021002E61D024FA0EF400234E
S21440281034607360BDE8F0878B4207D9002E54D0F1
S214402820002186E821000846BDE8F087B3FA83F128
S214402830002940F08E80AB4202D3824200F2FA80FA
S214402840841A65EB03050120AC46002E3FD086E88F
S2144028501010BDE8F08712B90127B7FBF2F7B7FAB8
S21440286087FEBEF1000F34D1EB1B3A0C1FFA87FCF3
S2144028700121B3FBF2F8250C02FB183345EA034569
S2144028800CFB08F3AB4207D9ED1908F1FF3002D232
S214402890AB4200F2D1808046ED1AA3B2B5FBF2F00F
S2144028A002FB105543EA05440CFB00FCA44507D93F
S2144028B0E41900F1FF3302D2A44500F2B88018466E
S2144028C0A4EB0C0440EA08409DE731463046BDE89C
S2144028D0F087CEF1200405FA0EF307FA0EF720FA39
S2144028E004F83A0C25FA04F448EA0308B4FBF2F17B
S2144028F04FEA184502FB11441FFA87FC45EA044597
S21440290001FB0CF3AB4200FA0EF409D9ED1901F1C4
S214402910FF3080F08A80AB4240F2878002393D44E7
S214402920EB1A1FFA88F5B3FBF2F002FB103345EAC8
S214402930034500FB0CF3AB4207D9ED1900F1FF3815
S2144029406FD2AB426DD902383D44EB1A40EA0141A2
S2144029508FE7C1F1200722FA07F88B4005FA01F409
S21440296048EA030320FA07FE4FEA134CFD404EEABE
S214402970040EB5FBFCF94FEA1E440CFB19551FFA32
S21440298083F844EA054509FB08F4AC4202FA01F232
S21440299000FA01FA08D9ED1809F1FF3043D2AC42EB
S2144029A041D9A9F102091D442D1B1FFA8EFEB5FB25
S2144029B0FCF00CFB10554EEA054400FB08F8A04519
S2144029C007D9E41800F1FF3529D2A04527D90238A7
S2144029D01C4440EA0940A4EB0804A0FB02894C458D
S2144029E0C6464D4615D312D056B1BAEB0E0364EB2D
S2144029F0050404FA07F7CB401F43CC4037607460A9
S214402A000021BDE8F0871846F8E69046E0E6C24565
S214402A10EAD2B8EB020E69EB03050138E4E7284634
S214402A20D7E7404691E78146BEE7014678E7023859
S214402A303C4445E7084608E7A8F102083D442BE732
S214402A40704700BF70B50F4E0F4D761BB61018BFBF
S214402A50002405D0013455F8043B9847A642F9D1E6
S214402A600A4E0B4D761B00F0B5F8B61018BF002482
S214402A7006D0013455F8043B9847A642F9D170BDBC
S214402A8070BD00BFE02B4000E02B4000E82B40002C
S214402A90E02B4000024B13B1024800F005B87047E7
S214402AA000000000B52A4000002301461A4618469A
S214402AB000F01EB838B50A4C0A4D641BA4100AD064
S214402AC004F18043013B05EB8305013C55F804398E
S214402AD09847002CF9D1BDE8384000F085B800BFD3
S214402AE0F82B4000F42B4000704700BF704700BFF3
S214402AF02DE9F8432C4D0646286898460F469146E1
S214402B00FFF7F2FF294B1C68D4F84831002B3ED023
S214402B105A681F2A1CDC02F1010E76B103EB8201D3
S214402B200124C1F88890D3F8880194402043022EAF
S214402B30C3F88801C1F8088123D00232C3F804E004
S214402B40286843F82270FFF7D1FF0020BDE8F883DD
S214402B50174B0BB34FF4C870AFF300800346D8B1A1
S214402B60D4F848210260002141600A46C4F8480172
S214402B704FF0010EC0F88811C0F88C11002EDCD042
S214402B80CCE7D3F88C110C43C3F88C41D5E704F559
S214402B90A673C4F84831BBE72868FFF7A7FF4FF095
S214402BA0FF30BDE8F88300BF40044020D02B4000F3
S214402BB000000000E20700000300000013000000D1
S214402BC00C0000000F0000002D0000000100000077
S214402BD018004020F8B500BFF8BC08BC9E467047B9
S214402BE0952A400065014000F8B500BFF8BC08BC17
S20C402BF09E467047410140007B
S20C402BF86CFBFF7F01000000AA
S214402C00BFF35F8F0138FBD1704701000000200002
S214402C1000093D00000000000000000004034020C2
S214402C206C034020D4034020000000000000000059
S214402C30000000000000000000000000000000004F
S214402C40000000000000000000000000000000003F
S214402C50000000000000000000000000000000002F
S214402C60000000000000000000000000000000001F
S214402C70000000000000000000000000000000000F
S214402C8000000000000000000000000000000000FF
S214402C9000000000000000000000000000000000EF
S214402CA000000000000000000000000000000000DF
S214402CB000000000000000000000000000000000CF
S214402CC001000000000000000E33CDAB34126DE66C
S214402CD0ECDE05000B0000000000000000000000D5
S214402CE0000000000000000000000000000000009F
S214402CF0000000000000000000000000000000008F
S214402D00000000000000000000000000000000007E
S214402D10000000000000000000000000000000006E
S208403040E4044020FF
S804401ABDE4
